:020000040000FA
:1000000000008031192808007E1480318B190B1CE8
:100010000D289F316F27803117280B1F17282100CB
:10002000111C17282000111C1728883167207E100A
:10003000090080311B28E2308400853085007C3047
:100040008600223087000130FF00743088310120A3
:100050008031D330840087308500A03086000030A6
:1000600087002230FF018831012080314730840031
:10007000883085004B308600013087002030FF013A
:10008000883101208031C230FA01FB018400003048
:1000900085001B30FE00FF019F31552780317E1007
:1000A00020007D28C8302000A0009730A1008A31B0
:1000B00055228031A5308F31BC2780318B313823D8
:1000C0008031772022008C100C110C128C120E1231
:1000D0008E120E138E13D030F2000730F3008F31E2
:1000E000AE2780315D23DA01DA0A630008001030A0
:1000F0008F31522780318F319B2FD4012100161F61
:1001000083280130842800302000D3002100961F6E
:100110008B2801308C2800302000530403199328C9
:10012000D401D40AAA2821001619992802302000E7
:10013000A928183003052000D300183A031DAA2867
:100140000C30210016052000D3000C3A031DAA280C
:100150000330D400A62280318B170B170D30F2002C
:100160000830F300A02280316130F2001F30F3002C
:100170009A22803100304B238031003A0319342910
:100180008931F52180312000540BDE28210096139F
:1001900016132B082000D80021002A082000D700C1
:1001A000210029082000D600210028082000D500C1
:1001B00021002D082000C2005530112902305406BC
:1001C000031DF828210027082000DC002100260854
:1001D0002000DB00210025082000DA00210024088F
:1001E0002000D90021002D082000C200593011291B
:1001F00003305406031D2129210023082000E000BC
:10020000210022082000DF00210021082000DE005C
:10021000210020082000DD0021002D082000C20060
:100220005D30C301C30AC4018B31672380318B3138
:1002300038238031D030F2000730F3008F31AE2701
:1002400080312100590803192929D9018931F52163
:100250008031BC21803136218A31972280310923B7
:100260008031A52180312129803119287A0803198C
:10027000080021005B08031D080020000C1C9529C4
:1002800021004F08803AF20080307202031D4A2993
:1002900032304E0203184D295D2B21004F08803A61
:1002A000F20080307202031D572932304E02031CC7
:1002B000692921004F08803AF20083307202031D41
:1002C0006329E7304E02031869292100DB01DB0AAC
:1002D000080021004F08803AF20083307202031DAB
:1002E0007329E8304E02031C852921004F08803A0B
:1002F000F2008B307202031D7F29B7304E020318C3
:10030000852902302100DB00080021004F08803AD7
:10031000F2008B307202031D8F29B8304E02031C8D
:10032000080003302100DB00080021004F08803A5C
:10033000F20093307202031D9F2988304E02031C85
:10034000080004302100DB00080021002C080319FC
:1003500008007B08DC00AC01CC01CD012D08200099
:10036000C200C301C30AC4017B0809070907AE3EE6
:100370008B3167238B31382B2100AD1B08006F2296
:100380008031D700570803190800022A7B080907A3
:100390000907AE3E860011308701A2007B080907DD
:1003A0000907AE3EF9297B0809070907AF3E860019
:1003B00011308701A2007B0809070907AF3EF92920
:1003C0007B0809070907B03E860011308701A200AB
:1003D0007B0809070907B03EF9297B0809070907C7
:1003E000B13E860017308701A2007B080907090784
:1003F000B13E840085010008210057072C2280317E
:100400008100172A2D082000CB00CC01CB1BCC0388
:100410004C08003A03190D2A172A4B0884000430AF
:1004200004020318172A87310435F53E82007B0841
:1004300009070907AE3E7E2321002D082000C200D7
:10044000C301C30AC4017B0809070907AE3E8B310B
:10045000672380318B31382B2000A7002208F6005B
:10046000F701F61BF7032208A300A401A31BA403B2
:100470002208F20027084A228031A500A601A51B08
:10048000A60323082507F8002408263DF9005C256B
:1004900076080800F500F401F51F522AF509F50A5F
:1004A000F401F40AF21F562AF209F20A720803193B
:1004B000682AF301F30AF21B5F2AF2355A2A7208FE
:1004C0007502031C652A7208F502F236F30B5F2AE7
:1004D000740803196D2AF509F50A75080800D8355E
:1004E000D83520008D1E762A2100D81420000D1E3C
:1004F0007B2A210058140F302100D80558084B3EA4
:10050000860001308700010803190034F030CA0E5C
:10051000CB0ECB054A080F39CB04F030CA0558087A
:10052000CA042B304A060319FF3417304A06031950
:100530000134003473082100D5007208D40008008B
:1005400073082100D1007208D0000800F422803125
:10055000B7228031AF22803158258031632B68303B
:10056000210099009A01980124009D01080026307D
:1005700022008C008D018E01013021008C00303072
:100580008D000F308E0023008E018D018C013030E4
:1005900024008D0001308C0007308E00210095135F
:1005A00025008C018D018E01373026008C00F03043
:1005B0008D00FF308E003F3027008C00F0308D0022
:1005C000FF308E001310121411140030F2000830A6
:1005D000F3009A228B1512303D009E0014309F00CC
:1005E0000E303C00A00008000E303C00A00003309C
:1005F000A10012303D009E0014309F0040302400C6
:10060000940095010130920021000D1324009512F1
:100610000800031020000E1C0314003003180130E2
:10062000CF0003108E1C0314003003180130D000DB
:1006300003100E1D0314003003180130D1004F08C1
:10064000C500C6015008C700C801C735C80D51080C
:10065000C900CA01C935CA0DC935CA0D47084904C0
:10066000CB0048084A04CC0045084B04CD0046089E
:100670004C04CE002A304D07840098304E3D850052
:100680000008D2007B06031908005208FB00090786
:100690000907AE3E7E2BF8004F2B7C2B00347808E8
:1006A000F600F7017708003A0319572B4E2B76080E
:1006B000003A03194D2B4E2B08002100DB01CE011F
:1006C000CF01FA01080020009901FC309700183092
:1006D0009600111017082100D300D201200016083F
:1006E0002100D20411140330F2000030F300A022E4
:1006F00001302000980008000030952D2000C40033
:10070000C2308600003087000830BA0000301E007A
:10071000BA0B872B4408033E860087010108BA0004
:100720005A30BB01BA35BB0D3A07840097303B3DC8
:100730008500003FBC00013FBD00BE01BF01C001FC
:10074000C101C201C3013C082100C20420003D08D0
:100750002100C30420003E082100C40420003F08FB
:100760002100C504200040082100C60420004108E3
:100770002100C704200042082100C80420004308CB
:100780002100C90420004408023E86000108BA0086
:100790008830BB01BA35BB0D3A07840097303B3D2A
:1007A0008500003FBC00013FBD000C30BE01BF0111
:1007B000C001C101C201C3012000BC35BD0DBE0D89
:1007C000BF0DC00DC10DC20DC30D890BDC2B200068
:1007D0003C082100C20420003D082100C304200081
:1007E0003E082100C40420003F082100C504200069
:1007F00040082100C604200041082100C704200051
:1008000042082100C804200043082100C904200038
:10081000440A860087010108BA008830BB01BA3556
:10082000BB0D3A07840097303B3D8500003FBC007C
:10083000013FBD00BE01BF01C001C101C201C30132
:100840004008C3003F08C2003E08C1003D08C00088
:100850003C08BF00BE01BD01BC013C082100C20430
:1008600020003D082100C30420003E082100C404EC
:1008700020003F082100C504200040082100C604D4
:10088000200041082100C704200042082100C804BC
:10089000200043082100C904200044088600010804
:1008A000BA008830BB01BA35BB0D3A0784009730D7
:1008B0003B3D8500003FBC00013FBD002430BE0130
:1008C000BF01C001C101C201C3012000BC35BD0D83
:1008D000BE0DBF0DC00DC10DC20DC30D890B652C22
:1008E00020003C082100C20420003D082100C30470
:1008F00020003E082100C40420003F082100C50458
:10090000200040082100C604200041082100C7043F
:10091000200042082100C804200043082100C90427
:100920004208F2004308F3004408F4004508F500CB
:100930004608F6004708F7004808F8004908F9009B
:100940000030A22C2000B10022008C123230860030
:100950000030870008302000A00000301E00A00BEF
:10096000AE2C200031087230860000308700031D55
:10097000E32C403FA000413FA100423FA200433F83
:10098000A300443FA400453FA500463FA600473FC3
:10099000A700320AA8000130A9000030AA00AB006D
:1009A000AC00AD00AE00AF00B000E02C03102000A2
:1009B000A90DAA0DAB0DAC0DAD0DAE0DAF0DB00D6B
:1009C000A80BD62C0F2D403FA000413FA100423F75
:1009D000A200433FA300443FA400453FA500463F7B
:1009E000A600473FA7002F30A8003208A802013018
:1009F000A80AA9000030AA00AB00AC00AD00AE0010
:100A0000AF00B0000D2D03102000A90DAA0DAB0DF5
:100A1000AC0DAD0DAE0DAF0DB00DA80B032D20002C
:100A20002908A0052A08A1052B08A2052C08A30562
:100A30002D08A4052E08A5052F08A6053008A70532
:100A40002008210422042304240425042604270466
:100A500003192D2D22000E172F2D22000E138E1795
:100A60008E1301302000B2070030B33DB43DB53DD8
:100A7000B63DB73DB83DB93D3908031D552D380881
:100A8000031D552D3708031D552D3608031D552D03
:100A90003508031D552D3408031D552D3308031D3E
:100AA000552D30303202031CB12C22008C16080068
:100AB0001630210097000800A101F91F662DF809E2
:100AC000F909F80A0319F90AA101A10AF71F6D2D06
:100AD000F609F709F60A0319F70A760877040319E5
:100AE000882DA001A00AF71B782DF635F70D722D81
:100AF00077087902031D7E2D76087802031C842D69
:100B00007608F8027708F93BF736F60CA00B782D3B
:100B100021080319902DF809F909F80A0319F90AAF
:100B20007908F7007808F6000800F5002400951A07
:100B300000347508F2002430F301F235F30DF2357C
:100B4000F30D720784009830733D8500000894000F
:100B50007508F2002330F301F235F30DF235F30D91
:100B6000720784009830733D850000089500960157
:100B70007508F2002530F301F235F30DF235F30D6F
:100B8000720784009830733D850000089200750854
:100B9000F2002630F301F235F30DF235F30D720752
:100BA00084009830733D85000008F400F40EF40DC5
:100BB000F40D21000D087406BF3974068D00240061
:100BC0009516013401340F34973400340034003466
:100BD0000034003400340034003401344D34953492
:100BE0000034003400340034003400340034003465
:100BF00001340234953400340034003400340034BD
:100C000000340034003403340F349734E334953423
:100C10004D349534003400340034003403344D3402
:100C20009534E33495340F34973400340034003471
:100C3000003403340F349734E3349534023495345C
:100C40000034003400340034033402349534E33487
:100C500095340F34973400340034003400340334B6
:100C60004D349534E33495340234953400340034F3
:100C700000340034033402349534E33495344D3475
:100C80009534003400340034003405340F34973484
:100C9000E33495344D349534E3349534023495344B
:100CA00005340F349734E334953402349534E33407
:100CB00095344D349534053402349534E334953409
:100CC0000F349734E33495344D349534053402347D
:100CD0009534E33495344D349534E33495340F34FE
:100CE000973403340F349734983495344D34953415
:100CF000003400340034003403340F349734983413
:100D00009534023495340034003400340034033414
:100D10004D3495349834953402349534003400348D
:100D20000034003405340F349734983495344D34FE
:100D30009534983495340234953405340F3497340F
:100D4000983495344D349534E334953402349534E5
:100D5000053402349534E33495340F3497349834A1
:100D600095344D34953405340F349734E334953449
:100D70004D349534983495340234953405344D34DB
:100D800095349834953402349534E33495340F34E3
:100D9000973405340F3497349834953402349534AD
:100DA000E33495344D34953405344D349534E3347F
:100DB00095340F3497349834953402349534003494
:100DC00000340034003400340034003401340F3473
:100DD00097340034003400340034013479349634CC
:100DE00000340034003400340134C4349634003408
:100DF00000340034003401342E349634003400348E
:100E00000034003403340F349734E33495347934A8
:100E10009634033479349634E33495340F3497346C
:100E200003340F349734E33495342E34963403343A
:100E30002E349634E33495340F3497340334C43469
:100E40009634E334953479349634033479349634D3
:100E5000E3349534C43496340334C4349634E334E0
:100E600095342E34963403342E349634E33495344A
:100E7000C434963403340F34973498349534793429
:100E800096340334C4349634983495347934963493
:100E900003340F349734983495342E349634033415
:100EA000C4349634983495342E3496342000A000FF
:100EB000A1000530A201A135A20D890B5B2F803066
:100EC000A1071F30A23D2130790203180800043029
:100ED0002002031808002208F3002108F200B627B8
:100EE000873102307902031C8B2F20002208F30087
:100EF0002108F2007808860087010108F400F50156
:100F0000F601F60A9B278731F80A2000A10A031987
:100F1000A20AF903712F20002208F3002108F20031
:100F20007808860087010108F400F501F6019B2787
:100F300023001508080000308B1B0130F7008B13CD
:100F400073082300920072089100750894007408D9
:100F50009300760C031C95120318951615131512A1
:100F60001515CA277708031D8B17080000308B1B47
:100F70000130F4008B137308230092007208910073
:100F8000151315161515CA27230015117408031D0E
:100F90008B170800230055309600AA309600951450
:100FA0000000000008000834083408340834103405
:100FB0001034103410340F340F340F340F34013424
:100FC000FF34013402340334043405340A34043465
:100FD000023402340C340D340C3401340F340C342C
:100FE000153404340134053411348131C62981317A
:100FF000D3298131E0298131ED292000181408001E
:101000000800FE0012001E000130FE020030FF3B0F
:101010007F087E040319003402287A080319132874
:10102000CE0A0319CF0A7B085C06031908004D0895
:10103000F1004C08F000CC0A0319CD0A033071020C
:10104000E83003197002031C08000130AC000800EE
:1010500032308F3152278831F701F8017408770751
:1010600084007508783D850000088A318D2288311A
:10107000F70A0319F80A7808803AF60080307602F9
:10108000031D44281E307702031808002E28003460
:1010900001340134003401340034003401340134AB
:1010A0000034003401340034013401340034643439
:1010B000613474346134003400340034003400345A
:1010C0000034003400340034003400340034111093
:1010D00021005308F1005208F0007A2088312100E5
:1010E000500851040319080051088A0050080A00EA
:1010F000883108002000181D8428181071089700F6
:10110000700896001814080071089700700896007F
:101110000800F6007408F7000530F801F735F80DFF
:10112000890B8E288030F7071F30F83D213075027B
:101130000318080004307402031808007508031926
:1011400008007608860087017808F3007708F20027
:10115000B220883172088100F70A0319F80AF60AEA
:10116000F5039E287308230092007208910015135E
:1011700015140000000023001408F3001308F20007
:1011800008002908A1002808A0002B08A3002A08AD
:10119000A2002D08A5002C08A4002F08A7002E08E7
:1011A000A6008A312422883120002908F500280869
:1011B000F4002B08F7002A08F600D62124308F31DE
:1011C000522788312000B101B2012F08F5002E0806
:1011D000F4002A08F4022B08F53B2D08F3002C0834
:1011E000F2002808F2022908F33B8F313D278831AD
:1011F000730820003202031DFF2872083102031811
:10120000080030088A318D2288312000B10A031984
:10121000B20AE528F830AA05AB01AE05AF012E08E9
:101220002A07B3002F082B3DB40000303402803071
:1012300003193302031C20297F30BE00BF01292976
:101240002E082A07BE002F082B3DBF00FF30BE0727
:10125000BF3D30082C07B30031082D3DB4000130EC
:101260003402283003193302031C3B292730C00005
:101270000130C100442930082C07C00031082D3D41
:10128000C100FF30C007C13D2B08A1002A08A00003
:101290002D08A3002C08A2003F08A5003E08A400CA
:1012A0004108A7004008A6008A3124228831200086
:1012B0002B08F5002A08F4002D08F7002C08F6008A
:1012C000D62124308F31522788312000BC01BD0146
:1012D0002C084002B3002D08413BB4003308013E06
:1012E000B5000030343DB6003D02031D79293508B4
:1012F0003C0203180800BA01BB012A083E02B300F1
:101300002B083F3BB4003308013EB5000030343DAC
:10131000B600B636B50CB636B50CB636B50C3608D2
:101320003B02031D952935083A020318D2292F08DC
:10133000B4002E08B300B436B30CB436B30CB436D4
:10134000B30C3308F2003408F3003D08F5003C0804
:10135000F4008F313D278831720820002807B5003E
:101360007308293DB60035083A07840036083B3D2E
:1013700085000008B9003208031DC2293908B700EA
:10138000B801C9293908B300B4013309B7003409D9
:10139000B80037088A318D2288312000BA0A031933
:1013A000BB0A7D29BC0A0319BD0A68294E308F315A
:1013B000522788317508F9007408F800F936F80CDE
:1013C000F936F80CF936F80C78088A318D22883114
:1013D0004F308F315227883176088A318D228831FB
:1013E00077088A318D228F319B2F2100AD01AD030B
:1013F00022008C1483315D2389318731FD278931A7
:10140000C830A0009730A10055228931E830F200A1
:101410000330F300AE278931FF30BC2789313823F0
:101420008931FF30BC27893138238931FA27893146
:10143000AA302000A0009730A10055227B080907A0
:101440000907AE3E83317E2B44305227893120007C
:101450002108F5002008F400F536F40CF536F40CFC
:10146000F536F40C74088D22893120002508F5002A
:101470002408F400F536F40CF536F40CF536F40CCB
:1014800074088D2289314530522789312000220885
:101490008D228931200023088D22893120002608E1
:1014A0008D228931200027088D2AE62789310130D5
:1014B0005227893127308D22893101308D2289319F
:1014C00000308D2289310C3052278931D7308D225E
:1014D0008931D6308D2289319D308D2289312C3051
:1014E00052278931A8308D2289313A3052278931EB
:1014F0001A308D2289313B305227893108308D22B4
:10150000893111305227893103308D222000210882
:10151000F5002008F40088312828F30022000E127C
:101520000C167308F200A42722000E1608001B2BCD
:101530002100AD1B352B2D082000C200C301C401C2
:101540007B0809070907AE3E6723893138238931B3
:1015500021002D082000C200C301C4017B08090737
:101560000907AE3E672389313823893121000330D2
:10157000AD0AAD052D082000C200C301C30AC40195
:101580007B0809070907AE3E672389313823893173
:10159000352B21002D0A0319D22AFF302000CD005F
:1015A000CE00D52A2000CD01CE014D082100AD008E
:1015B0002D0FF62A2D082000C200C301C4017B08AC
:1015C00009070907AE3E6723893138238931210095
:1015D0002D082000C200C301C4017B0809070907C8
:1015E000AE3E6723893138238931352B2000C20173
:1015F000C203C301C401C40A7B0809070907AE3E40
:1016000067238931382389312000C201C203C30115
:10161000C401C40A7B0809070907AE3E6723893164
:10162000382389312100BA2AF3278931352B8031BB
:1016300052208931352B21005B082000CB00CC01E2
:10164000CB1BCC034C08003A0319272B372B4B0834
:10165000013A0319982A033A0319C92A013A0319CE
:10166000142B073A0319172B372B83315D230800FE
:1016700021000630D60A5602031C5A2BC83020001F
:10168000A0009730A1005522893121002230D601D7
:1016900052278931C4308D22893120305227893137
:1016A000FF30522789319B278931AA30A00097301B
:1016B000A100552A223052278931C4308D22893128
:1016C000203052278931FF30522789319B2F220049
:1016D000CA00C301C801C901C401C5018600870150
:1016E0000108BC004A088600413FBD004A08860048
:1016F000423FBE004A088600433FBF000B30AA00AD
:101700009330AB005430AC009230AD009D30AE0051
:101710009130AF00E630B0009030B1002000C21B25
:10172000162D10302200C800C90120004208F20026
:101730001830F301F400F5013D27893172082200C9
:10174000C8077308C93D20004208803A7D3E03184F
:10175000C72B220049082000B400220048082000BE
:10176000B3000530B5005C27893142083C3E860055
:10177000013087000108F2000730F301F400F501A1
:101780003D27893179302000C5002330E42B220029
:1017900049082000B400220048082000B3000730A8
:1017A000B5005C27893142083C3E86000130870045
:1017B0000108F2000B30F301F400F5013D278931F7
:1017C0007C302000C5002230C60072084507860024
:1017D0007308463D870001082200C200F20019305C
:1017E000F301F400F5013D27893172086F3E2000B6
:1017F000C5000030733DC600460D460C2200C500F2
:101800002000450C2200C4009430C4070318C50A08
:101810001930C4020030C53B2000430803192F2CA7
:10182000B730A8009430A900220049082000AB007E
:10183000220048082000AA00220045082000AD0030
:10184000220044082000AC001830AE001930AF016F
:10185000B000B101B201B20A89310A2189313D30AB
:101860002200C4020030C53B200042352A3E8600DB
:1018700001308700403FA800413FA90022004908ED
:101880002000AB00220048082000AA0022004508E2
:101890002000AD00220044082000AC001830AE004B
:1018A0003D30AF01B000B101B201B20A89310A2165
:1018B0008931220043082000C500C601C51BC603AC
:1018C0004608803AC70080304702031D6B2C220077
:1018D00042082000450219300318F02C2200C402EF
:1018E0000030C53B20004208803A7D3E0318A22C00
:1018F000220043082000C500C601C535C60D4208B8
:101900003C3E8600013087000108F2000730F301F9
:10191000F400F5013D2789317A302000C7002330DB
:10192000C80072084707C9007308483DCA00450847
:101930004907860046084A3D8700403F2200C00014
:10194000413FCB2C220043082000C500C601C5350D
:10195000C60D42083C3E8600013087000108F200B7
:101960000B30F301F400F5013D2789317D30200073
:10197000C7002230C80072084707C9007308483DF5
:10198000CA0045084907860046084A3D8700403F8F
:101990002200C000413FC1002000A90022004008F1
:1019A0002000A800220049082000AB0022004808BF
:1019B0002000AA00220045082000AD0022004408B3
:1019C0002000AC001830AE001930AF01B000B101FA
:1019D000B201B20A89310A2189312200C30A592C85
:1019E0002200C4020030C53B200043080319080050
:1019F0006C30A8009430A900220049082000AB00F8
:101A0000220048082000AA00220045082000AD005E
:101A1000220044082000AC001830AE001930AF019D
:101A2000B000B101B201B20A89310A29FF30BC27E6
:101A300089312200A401A40AA5014A08023E8600B9
:101A400087010108031D2B2D20004408031D2B2DA9
:101A50002200A401A5012200A601A60AA7014A0AA4
:101A6000860087010108031D3C2D20004408031D4A
:101A70003C2D2200A601A7012200A801A80AA90165
:101A80004A08860087010108031D4D2D20004408E7
:101A9000031D4D2D2200A801A90140302200C800DD
:101AA000C90126082807F2002708293DF300240869
:101AB000F2072508F33DF20A0319F30A1830F4007F
:101AC000F5013D27893172082000C5007308C60062
:101AD000460DC60CC50C45082200C8022000460869
:101AE0002200C93BB201B20A4A08860087010108F8
:101AF000031D802D20004408031D802D2200B2010B
:101B0000220032080319862D0130872D0030A000F5
:101B1000B301B30A4A0A860087010108031D962D06
:101B200020004408031D962D2200B3012200330833
:101B300003199C2D01309D2D0030A100B401B40A81
:101B40004A08023E860087010108031DAD2D2000D2
:101B50004408031DAD2D2200B401220034080319EE
:101B6000B32D0130B42D0030A200A301A30AB801A7
:101B7000B501B50A4A08860087010108031DC62D74
:101B800020004408031DC62D2200B501220035089F
:101B90000319CC2D0130CD2D0030B900B601B60AA5
:101BA0003908031DD92D4A0A860087010108031947
:101BB000B60136080319DE2D0130DF2D0030BA00E2
:101BC000B701B70A3A08031DEC2D4A08023E860009
:101BD000870101080319B70137080319F12D0130F6
:101BE000F22D0030BB00C601C7014708803A200033
:101BF000C50080304502031D002E0430220046023D
:101C00000318080022004608203E860001308700A5
:101C100001080319382F4708803A2000C50080309A
:101C20004502031D162E03302200460203182B2EF8
:101C3000220046083C3E8600013087000108F20081
:101C40000730F301F400F5013D2789317930200098
:101C5000C50023303D2E220046083C3E8600013060
:101C600087000108F2000B30F301F400F5013D2775
:101C700089317C302000C5002230C600720845073B
:101C800086007308463D870001082200C20046080E
:101C9000383E86000130870001080319532E1830A2
:101CA000C8070318C90A4208F2001930F301F4000A
:101CB000F5013D27893172083D3E2000C500003006
:101CC000733DC600460D460C2200C5002000450CA1
:101CD0002200C4009430C4070318C50A3D30C40272
:101CE0000030C53B46352A3E860001308700403F24
:101CF0002000A800413FA900220049082000AB00B5
:101D0000220048082000AA00220045082000AD005B
:101D1000220044082000AC001830AE003D30AF0176
:101D2000B000B101B201B20A89310A218931220021
:101D3000C30143082000C500C601C51BC6034608F1
:101D4000803AC70080304702031DAA2E22004208B5
:101D5000200045020318382F19302200C402003039
:101D6000C53B4708803A2000C50080304502031D6E
:101D7000BC2E0330220046020318E92E220043083D
:101D80002000C500C601C535C60D220046083C3EF0
:101D90008600013087000108F2000730F301F400EB
:101DA000F5013D2789317A302000C7002330C80073
:101DB00072084707C9007308483DCA00450849072B
:101DC000860046084A3D8700403F2200C000413F50
:101DD000132F220043082000C500C601C535C60DDB
:101DE000220046083C3E8600013087000108F200D0
:101DF0000B30F301F400F5013D2789317D302000DF
:101E0000C7002230C80072084707C9007308483D60
:101E1000CA0045084907860046084A3D8700403FFA
:101E20002200C000413FC1002000A900220040085C
:101E30002000A800220049082000AB00220048082A
:101E40002000AA00220045082000AD00220044081E
:101E50002000AC001830AE001930AF01B000B10165
:101E6000B201B20A89310A2189312200C30A992EAE
:101E70002200C60A0319C70AF52DF601F701721CE4
:101E8000452F7408F6077508F73DF435F50DF33660
:101E9000F20C72087304031D3F2F7708F3007608D5
:101EA000F2000800F30022000E120C127308F20078
:101EB000A42722000E1608003508F2001930F3019D
:101EC000F400F5013D27893172083D3E2000B6003F
:101ED0000030733DB700370D370CB900360CB80031
:101EE0009430B8070318B90A3508F200E730F30157
:101EF000F400FF30F5003D2773082000AB007208A6
:101F0000AA003808AA073908AB3DC330AA07FF303A
:101F1000AB3D3408A9003308A8003308133EAC00D9
:101F20000030343DAD003908AF003808AE00FF3056
:101F3000B0008831C12820008E1D08000A30F20050
:101F4000F301AE2789319B2F7208240091002000F5
:101F5000911DA72F91112400110808000130F202F1
:101F60000030F33B720FB72F730A03190800C83013
:101F70000032890BB82FAE2F2000A8007F30A001BF
:101F8000A101A201A301A4002730A501A6000130F0
:101F9000A7002422F401F501F601F7018931D621C9
:101FA00089312430522789312000A901AA0128084B
:101FB0008D2289312000A90A0319AA0A12302A02A7
:101FC00080300319290203180800D72F22008E122F
:101FD000C830F200F301AE27893122008E16C830D6
:101FE000F200F301AE2FAE30F8001430F9000030EB
:101FF0008731562F1430F401F500AE30883189282E
:102000004E340034003400340034003400340034E2
:10201000003400344D3400340034003400340034D3
:1020200000340034003400344234003400340034CE
:102030000034003400340034003400344E342B3487
:102040004D340034003400340034003400340034A3
:102050004D342B344E34003400340034003400341A
:10206000003400344E342B34423400340034003415
:10207000003400340034003442342B344E34003405
:102080000034003400340034003400344D342B3438
:10209000423400340034003400340034003400345E
:1020A00042342B344D3400340034003400340034D6
:1020B000003400344E342B344D342B34423400344D
:1020C00000340034003400344E342B3442342B348A
:1020D0004D340034003400340034003442342B34A6
:1020E0004E342B344D34003400340034003400348A
:1020F00042342B344D342B344E340034003400340D
:10210000003400344E342F342F344D340034003436
:1021100000340034003400344E342F342F34423431
:102120000034003400340034003400344D342F3493
:102130002F3442340034003400340034003400348E
:102140004E342F342F344D342F342F344234003456
:10215000003400344E342F342F344D342B34423479
:10216000003400340034003442342B344E342F34E5
:102170002F344D3400340034003400344E342B34CA
:102180004D342F342F3442340034003400340034C2
:102190004D342F342F3442342B344E340034003439
:1021A000003400344E342F342F3442342B344D3429
:1021B00000340034003400344D342B344E342F348A
:1021C0002F344234003400340034003400340034FE
:1021D0000034003400340034003418340034003447
:1021E0003834003400343C34003400347C3400345F
:1021F00000347C34003400347E3400340034FE3447
:1022000000340034FE3400340034EF340034013440
:10221000EF3400340134C73480340134C73480349F
:102220000134833480340034033480340034013486
:10223000803400340034003400341034003400346E
:1022400018340034003418340034003418340034A6
:102250000034183400340034183400340034183496
:10226000003400341834003400341834003400349E
:102270001834003400341834003400341834003476
:10228000003410340034003400340034003400349E
:10229000003400340034003400340034003400349E
:1022A000003400340034003400340034003400348E
:1022B00000341834003400343C34003400343E34EC
:1022C000003400347E34003400347F340034383439
:1022D000FF3400347834FF3400347C34FF348034ED
:1022E000FC346F3480347E340F3480343E34073411
:1022F00080343F340734C0341F348734C0341F3433
:10230000C734C0340F34C734C0340734E734C03462
:102310000334F734C0340134FF34C0340034FF34A4
:10232000803400347F34803400343E340034003450
:1023300000340034003400340034003400340034FD
:10234000003400340034003418340034003438349D
:10235000003400343C34003400347C340034003425
:102360007C34003400347E3400340034FE340034D5
:102370000034FE3400340034EF3400340134EF34E0
:1023800000340134C73480340134C734803401341C
:102390008334803400340334803400340134803496
:1023A0000034003400340034103400340034183465
:1023B000003400341834003400341834003400344D
:1023C0001834003400341834003400341834003425
:1023D0000034183400340034183400340034183415
:1023E000003400341834003400341834003400341D
:1023F000103400340034003400340034003400342D
:10240000003400340034003400340034003400342C
:10241000003400340034003400340034003400341C
:10242000003400340034003400340034003400340C
:1024300000340034003408340E3400343E341F3489
:1024400000343F343F3400347F34FF3480347F34F1
:10245000EF348034FF34E734C034F334E734C0342D
:102460007334F334C0347934F334C0347B34F1340E
:10247000C0347F34FF34C0347F34FF34C0347C3404
:10248000FF34C0343E340F34C0343E34073480341B
:102490003C34003400341834003400340034003448
:1024A000003400340034003400340034003400348C
:1024B000003400340034183400340034383400342C
:1024C00000343C34003400347C34003400347C3438
:1024D000003400347E3400340034FE3400340034E0
:1024E000FE3400340034EF3400340134EF3400346F
:1024F0000134C73480340134C73480340134833428
:1025000080340034033480340034013480340034A7
:1025100000340034003410340034003418340034F3
:1025200000341834003400341834003400341834C3
:1025300000340034183400340034183400340034CB
:1025400018340034003418340034003418340034A3
:10255000003418340034003418340034003410349B
:1025600000340034003400340034003400340034CB
:1025700000340034003400340034003400340034BB
:102580001F34003400343F34FC3400347F34FF34D3
:1025900000347F34FF3480343F34FF34C0341F3480
:1025A000DF3480340F34C03400340734E034003476
:1025B0000334F03400340134F03400340134F034A6
:1025C00000340034F03400340134F03400341F346B
:1025D000F03400343F34F03400347F34F0340034CD
:1025E000FF34F03400347F34E03400343F34F034CE
:1025F00000340F34FC3400340734FF34003400342A
:10260000FF34C03400343F34C03400340F34C0349D
:10261000003400340034003400340034003400341A
:1026200000340034183400340034383400340034BA
:102630003C34003400347C34003400347C340034C6
:1026400000347E3400340034FE3400340034FE3470
:1026500000340034EF3400340134EF3400340134FA
:10266000C73480340134C734803401348334803437
:1026700000340334803400340134803400340034B6
:102680000034003410340034003418340034003482
:102690001834003400341834003400341834003452
:1026A0000034183400340034183400340034183442
:1026B000003400341834003400341834003400344A
:1026C000183400340034183400340034103400342A
:1026D000003400340034003400340034003400345A
:1026E000003400340034003400340034003400344A
:1026F000003400340034003400340034003400343A
:102700000034003400341834003400343F340034D2
:1027100000347F34F03400347F34FC3400341F3410
:10272000FF3400340334FF34803400343F348034C9
:1027300000340F34C0341C340F3480343F34FF3441
:1027400000347F34FE3400347F34FC3400347F3472
:10275000F83400340F34FE3400340334FF34803452
:102760000034FF34C03400343F34C03400340F34FC
:1027700000340034003400340034003400340034B9
:102780000034003458340034003400340034003451
:1027900000340034003400344E340034003400344B
:1027A0000034003400340034003400345334003436
:1027B0000034003400340034003400340034003479
:1027C0004E342734003400340034003400340034F4
:1027D00000340034533427340034003400340034DF
:1027E00000340034003400344E342B34533400347D
:1027F00000340034003400340034003453342B34BB
:102800004E340034003400340034003400340034DA
:102810004E342B3453342734003400340034003425
:1028200000340034533427342B344E340034003415
:1028300000340034003400344E3427342B34533405
:1028400000340034003400340034003453342B346A
:102850004E34273400340034003400340034003463
:102860004E3427342B3453342734003400340034AE
:1028700000340034533427342B344E34273400349E
:1028800000340034003400344E342F342F345334A9
:102890000034003400340034003400344E34273423
:1028A0002F342F34533400340034003400340034D7
:1028B0004E342F342F345334273400340034003452
:1028C000003400344E3427342F342F34533427341B
:1028D0000034003400340034003400340034003458
:1028E0000034003400340034003400340034003448
:1028F00000340034003400340034003400346034D8
:102900000034703460340034FF34F0340034FF3469
:10291000F0340034E734BF340034E0343F34C034A2
:10292000E0340F34C034E0340134C0346034003457
:10293000C03400340034C03400340034C0340034B7
:102940000034C03400340034C03400340034003467
:1029500000340034003400340034003400340034D7
:1029600000340034003400340034003400340034C7
:1029700000340034003400340034003400340034B7
:1029800000340034003400340034003400340034A7
:102990000034403400340034E03400340034E03497
:1029A00000340034E03400340034E0340034803447
:1029B000E0340034C034F8340034C0347F34803420
:1029C000C0347F34B834C0340134FF34C0340134EF
:1029D000FF34C0340134E734C0340034C034003430
:1029E0000034003400340034003400340034003447
:1029F0000034003400340034003400340034003437
:102A00000034003400340034003400340034003426
:102A10000034003400340034003400340034003416
:102A2000003408340E3400343E341F3400343F3454
:102A30003F3400347F34FF3480347F34EF348034CB
:102A4000FF34E734C034F334E734C0347334F33440
:102A5000C0347934F334C0347B34F134C0347F343F
:102A6000FF34C0347F34FF34C0347C34FF34C0348E
:102A70003E340F34C0343E34073480343C340034A8
:102A8000003418340034003400340034003400348E
:102A9000003400340034003400341F340034003477
:102AA0003F34FC3400347F34FF3400347F34FF344F
:102AB00080343F34FF34C0341F34DF3480340F346B
:102AC000C03400340734E03400340334F0340034CC
:102AD0000134F03400340134F03400340034F03484
:102AE00000340134F03400341F34F03400343F3407
:102AF000F03400347F34F0340034FF34F0340034E8
:102B00007F34E03400343F34F03400340F34FC348C
:102B100000340734FF3400340034FF34C034003450
:102B20003F34C03400340F34C03400340034003437
:102B30007834003400347C34003400343E340034C3
:102B400000341F34003400340F3480340034033434
:102B5000E03400340134F03400340034F034003414
:102B600000347834003400341E34003430340F34F0
:102B7000C0347C340F34C0343E340734C0341F3486
:102B8000003400340F34803400340734C03400344F
:102B90000134F03400340034F0340034003478343C
:102BA000003400343C34003400340F34C03400347A
:102BB0000F34C03400340734C0340034003480345F
:102BC0000034003400340034003400340034003465
:102BD0000034003400340034003400340034003455
:102BE00000340034003400340034003480340034C5
:102BF0000034C03400340034C03400340D34C034E8
:102C000000341F34C03400341F34FC3400340F341B
:102C1000FE3400340334FE3400340034FC34003419
:102C20000034C03400340034C03400340034C034C4
:102C300000340034003400340034003400340034F4
:102C400000340034003400340034003400340034E4
:102C500000340034003400340034003400340034D4
:102C60000034603400340034F83400340034FE346E
:102C700000340034FF34003400343F340034003476
:102C80001E340034003438340034003478340034D6
:102C90000034783400340034F83400340034F8342C
:102CA0001834003478347E3400347834FF340034FF
:102CB0007934EF3400347D34EF3480343F34C7341A
:102CC00080343F34C734C0343F34C334C0341F343D
:102CD000C334C0341F34C334C0340F348334C034DD
:102CE0000F348034003400340034003400340034B5
:102CF0000034003400340034003400340034003434
:102D000000340034183400340034383400340034D3
:102D1000783400340034783400340034F83400342B
:102D2000003478343C34003478347E3400347834E1
:102D3000FF3400347934EF3480347D34EF34803420
:102D40003F34C734C0343F34C734C0343F34C33455
:102D5000C0341F34C334C0341F34C334C0340F34C0
:102D60008334C0340F3480340034003400340034F1
:102D700000340034003400340034003400340034B3
:102D80000034003400340034783400340034FE342D
:102D900000340034FF34003400343F340034003455
:102DA0000E34003400340034003400340034003475
:102DB00000343E34003400347F34F03400347F3447
:102DC000FC3400347F34FE3400340F34FF340034DC
:102DD00000347F34803400341F34C03408340F345E
:102DE00080343F34FF3480343F34FF3400347F3448
:102DF000FC3400347F34F83400341F34FC340034A5
:102E00000734FF3480340134FF34C03400347F345D
:102E1000C03400341F34803400340E3400340034A5
:102E20000034003400340034003400340034003402
:102E30001834003400343E34003400347F34F0342D
:102E400000347F34FC3400343F34FE340034073423
:102E5000FF34803400343F34803400341F34C034B5
:102E600008340F3480343F34FF3480343F34FF342F
:102E700000347F34FC3400347F34F83400341F34A1
:102E8000FC3400340734FF3480340134FF34C03460
:102E900000347F34C03400341F34803400340634AE
:102EA0000034003400340034003400340034003482
:102EB00000340034003409348034043440340234A3
:102EC000A034083404340534503408340234033454
:102ED000483404348134023468340834913408347A
:102EE000A23402340534033480340D3440340B34BE
:102EF000C0340634C0340F3458340C3483340334B3
:102F0000F034083406340734A1340A344C34053420
:102F10000034003400340A3400340534C034003442
:102F20003034003408340934063408342434083486
:102F300012340234423401348434043461340034B1
:102F40009834003400340F34C034053430340A343B
:102F5000F034003410341834183408341834183469
:102F600008340034003400340034003400340034B9
:102F7000003400340034003400340034133414348A
:102F8000443412340034003400340034003400344B
:102F90005034AA345534AA34113400340034003487
:102FA0000034003400340034003400340034003481
:102FB0000034003400340034FF34FF341F34003454
:102FC0000034003400340034003400344E343A34D9
:102FD00020342534733420344D343A3420342534AD
:102FE0007334203442343A3420342534733420345A
:102FF00047343A342034253473340A3400344E34A0
:103000003A342534643409344D343A342534643444
:10301000093442343A3425346434093447343A3478
:10302000253464340A3400344E3427342B3453347A
:1030300020344E3420344E3420344E342B344D342E
:103040002B34423400340A34403407340034003422
:103050004034013400340034023401340434003488
:0C3060000334643461347434613400348F
:103EAA006400013080010131FE020030FF3B7F08CF
:103EBA007E0403190034562F20000C180800210034
:103ECA005A0803196C2FDA01D901D90A08000130FE
:103EDA00FA0008002700131C0800732F2100540859
:103EEA00550403197D2F55088A0054080A009F318A
:103EFA002700131008000134003400340034013460
:103F0A00013400340E3400340134003401340034F6
:0E3F1A00013401340F34003400340134023419
:020000040001F9
:04000E00E43FFF3E8E
:00000001FF
